:020000040800F2
:1000000090170020B52000081D0F00081F0F0008E2
:10001000230F0008270F00082B0F00080000000026
:100020000000000000000000000000002F0F00088A
:10003000310F000800000000330F0008350F0008E2
:10004000CF200008CF200008CF200008CF200008D4
:10005000CF200008CF200008CF200008CF200008C4
:10006000CF200008CF200008CF200008CF200008B4
:10007000CF200008CF200008CF200008CF200008A4
:10008000CF200008CF200008CF200008CF20000894
:10009000CF200008CF200008CF200008CF20000884
:1000A000CF200008CF200008CF200008CF20000874
:1000B000CF200008CF200008CF200008CF20000864
:1000C000CF200008CF200008CF200008CF20000854
:1000D000CF2000082B200008791D0008471A0008CF
:1000E000CF200008CF200008CF200008CF20000834
:1000F000CF200008CF200008CF200008CF20000824
:10010000CF200008CF200008CF200008CF20000813
:10011000AB190008CF200008CF200008F51D00080B
:10012000CF200008CF200008CF200008CF200008F3
:1001300000F002F800F0B0F80AA090E8000C824449
:100140008344AAF10107DA4501D100F0A5F8AFF226
:10015000090EBAE80F0013F0010F18BFFB1A43F0A5
:100160000103184708690000286900000A444FF09D
:10017000000C10F8013B13F0070408BF10F8014B06
:100180001D1108BF10F8015B641E05D010F8016B4B
:10019000641E01F8016BF9D113F0080F1EBF10F8AF
:1001A000014BAD1C0C1B09D16D1E58BF01F801CBD2
:1001B000FAD505E014F8016B01F8016B6D1EF9D555
:1001C0009142D6D37047000000230024002500266A
:1001D000103A28BF78C1FBD8520728BF30C148BFAA
:1001E0000B6070476E2904F0E280702903F0B78637
:1001F000662905F0C287652905F0BF87672905F0E4
:10020000BC876129AFF3008003681B0A28BF41F057
:100210008001692903F02886642903F02586752961
:1002200003F022866F2904F0E883782903F083869F
:10023000E92904F08383E42904F08083F52904F09C
:100240007D83EF2904F0E583F82903F082860368B3
:10025000DB0928BF41F08001632904F0F282732991
:1002600004F0F782E32904F07384F32904F078841E
:10027000002070471FB504F0D7FB040000200021C8
:1002800005F03CF9401C60600020002105F020F9D9
:10029000E0601FBD10B510BD04F000FD1146FFF772
:1002A000E9FF00F02BF904F027FD03B4FFF7F2FF9C
:1002B00003BC01F04FFE000070B504460026002587
:1002C000FE48008800F4004000282BD0FB4800883E
:1002D000C0F30E06FA4803F047FF85B20020F84944
:1002E0004855F8A003F04EFDFBA1F54803F0B0FF20
:1002F00038B90120F949087008460178F8A003F0E0
:1003000041FDFBA1EE4803F0A3FF38B90120F949F4
:10031000087008460178F8A003F034FD14B10020FD
:10032000E649088070BDF848F849086070472DE933
:10033000F0410746884614461D4601F02CFC002675
:100340002DE0384601F031FCF1A003F01BFD3846EA
:1003500003F018FD0020F849086017E0642001F060
:10036000CCFDF54800686430F34908604146D44844
:1003700003F0C4FE50B1F1A003F004FDD04803F037
:10038000E3FC01F008FC0120BDE8F081EA480068C8
:10039000A042E3D30020E8490860701CC6B2AE4218
:1003A000CFDBE6A003F0EEFCC54803F0CDFC01F086
:1003B000F2FB0020E8E704462146EBA003F0E2FC54
:1003C0000CE00A236422EBA1EBA0FFF7B0FF0128A9
:1003D00001D1FFF7A8FFC82001F08FFDF1E72DE95B
:1003E000F04F85B005460C4600BF4FF0000A2BE0E9
:1003F000002621E0701C05EBC000D0E900B305EB3E
:10040000C60003C85A46CDE9020105F029FB11D206
:1004100005EBC600D0E90078701C05EBC000D0E900
:10042000001005EBC602C2E90010701C05EBC0000D
:10043000C0E90078701CC6B2A4EB0A00B042D9DC57
:100440000AF1010000F0FF0AA245D1DB204604EBCF
:10045000D0714910A4EB410109BBA14604EBD9704E
:100460004010401C05EBC00003C80494CDE9000116
:1004700004EBD470401005EBC000D0E900BC0B4683
:1004800058466146009A05F04FF800224FF080432D
:10049000CDE9020105F0FCF805B0BDE8F08F224679
:1004A00004EBD270401005EBC00103C9F4E72DE95D
:1004B000F05F04460D4616461F46DDE90A893246BE
:1004C0003B462046294605F00DFB824642464B46F8
:1004D00005F0C6FA02D234463D460DE032463B46B0
:1004E0002046294605F0F2FA824642464B4605F080
:1004F000B7FA01D226462F46BDE8F09F2DE9F04F0E
:10050000ADF5297D00205D905E905F905A905B90E4
:100510005C9057905890599064213EA803F071FE6A
:10052000642125A803F06DFE01F0AAFC4FF4A06041
:1005300001F0E0FD4FF4165001F028FD4FF4165085
:1005400001F0C4FB4FF4E13001F0C5FA01F0CCF941
:1005500000F0E2FD642001F0D0FC01F001F900F0B0
:1005600036FF11220221002001F084F8122202211C
:10057000102001F07FF813220221202001F07AF8E8
:1005800014220221302001F075F8152202214020AA
:1005900001F070F82E220221502000F038FF2E22A8
:1005A0000221552000F033FF2E2202215A2000F0B4
:1005B0002EFF44F2506001F0A0FC00F008FF16226C
:1005C0000221002001F056F817220221102001F02C
:1005D00051F818220221202001F04CF819220221A2
:1005E000302001F047F83A220221402000F00FFFAE
:1005F0001B220421302001F03DF816220421402066
:1006000001F038F817220421502001F033F85CA0E3
:1006100003F0B8FB5FA003F0B5FB65A003F0B2FBED
:1006200055A001F0C2FA0A2340F6B83269A16BA0C6
:10063000FFF77DFE012802D00120FFF7BCFE0A2053
:1006400001F05BFC0A2340F6B83262A14AA0FFF732
:100650006EFE012802D00220FFF7ADFE0A2001F055
:100660004CFC0A234FF47A725FA161A0FFF75FFE92
:10067000012802D00320FFF79EFE0A2001F03DFC76
:100680000A234FF47A725DA15EA0FFF750FE0128A5
:1006900002D00420FFF78FFE0A2001F02EFC0A236F
:1006A0004FF47A724BA15AA0FFF741FE012802D005
:1006B0000520FFF780FE0A20B2E00000400700207E
:1006C000EC0A00206770727320726573706F6E732E
:1006D000653A25730D0A00004F4E00001C000020F3
:1006E00073746172745F666C61673D25640D0A0006
:1006F0004F4646001D00002073746F705F666C618A
:10070000673D25640D0A00000400FA050CED00E0C9
:100710000D0A2A2A2A2A2A2A2A2A2A2A2A2A2A2A76
:100720002A73656E642A2A2A2A2A2A2A2A2A2A2A27
:100730002A2A2A2A2A0D0A00000000200D0A2A2A45
:100740002A2A2A2A2A2A2A2A2A2A2A2A2A7265634D
:10075000656976652A2A2A2A2A2A2A2A2A2A2A2AF8
:100760002A2A2A2A0D0A00004552524F5225640DAA
:100770000A0000004F4B000041540D0A0000000029
:1007800057656C636F6D6520746F20757365210DFF
:100790000A000000444154412066726F6D204750AA
:1007A0005253204D6F64756C65210D0A00000000E6
:1007B0000D0AD5FDD4DAC5E4D6C347505253C4A3BD
:1007C000BFE9C7EBC4CDD0C4B5C8B4FD2E2E2E0DE5
:1007D0000A0000004F4B0D0A0000000041542B524C
:1007E00053540D0A000000005245414459000000D6
:1007F00041542B4350494E3F0D0A00004352454798
:100800003A20310041542B435245473F0D0A000026
:1008100041542B43474154543D310D0A0000000020
:1008200001F06BFB0A234FF47A72AFF25801F8A083
:10083000FFF77DFD012802D00620FFF7BCFD0A204E
:1008400001F05BFB08234FF4FA62AFF27801F7A0E6
:10085000FFF76DFD012802D00720FFF7ACFD0A204D
:1008600001F04BFB64213EA803F0CBFCF3A13EA8B2
:1008700003F056FCF6493EA803F095FCF5A13EA80E
:1008800003F091FCF4493EA803F08DFCEAA13EA8D8
:1008900003F089FC052341F28832F0A13EA8FFF75E
:1008A00046FD012802D00820FFF785FD0A2001F04F
:1008B00024FB03234FF4FA62AFF2E801E9A0FFF74B
:1008C00036FD012802D00920FFF775FD0A2001F04E
:1008D00014FBE8A003F056FA00F079FD162202217D
:1008E000002000F0C7FE17220221102000F0C2FEF7
:1008F00018220221202000F0BDFE19220221302002
:1009000000F0B8FE3A220221402000F080FD1A22B9
:100910000421302000F0AEFE16220421402000F019
:10092000A9FE17220421502000F0A4FE4FF4FA6023
:1009300001F0E3FA00F04BFD09220021084600F027
:1009400099FE0B220021102000F094FE0C220021C1
:100950002D2000F08FFE0A220021442000F08AFEA4
:100960000B220021542000F085FEC8A20021742033
:1009700000F065FE50220221002000F048FD4D22CB
:100980000221082000F043FD32220221102000F055
:100990003EFD2E220221182000F039FD35220221D1
:1009A0001E2000F034FD3A220221262000F02FFD07
:1009B00007220421002000F05DFE082204211020FF
:1009C00000F058FE3A220421202000F020FD5022A1
:1009D0000621002000F01BFD4D220621082000F01A
:1009E00016FD31220621102000F011FD30220621D3
:1009F000182000F00CFD3A220621202000F007FD0F
:100A0000642125A803F0FDFBA1A125A803F0C6F9E8
:100A1000012340F6B83225A925A8FFF788FC012854
:100A200002D00A20FFF7C7FC642001F066FA25A96E
:100A300099A003F0A7F9642125A803F0E2FBE4E103
:100A4000A6A9A7A800F00BFCA598401CC0B2A590D1
:100A50006421A59890FBF1F201FB12000028EED171
:100A6000A59082468BE093494A79097902EB0120EF
:100A700005F0D8F9A4900A2001F03FFAA49805F0F7
:100A80001BF900228C4BCDE9220104F001FEA1915B
:100A9000A0908A498A78C97802EB012005F0C2F952
:100AA000A39086490A79497902EB012005F0BAF949
:100AB000A2900A2001F021FAA39805F0FDF8002287
:100AC0007F4BCDE9220104F0E3FD9D919C90A2981B
:100AD00005F0F2F800227A4BCDE9220104F0D8FDAE
:100AE00080468946BAF1000F30DD00214FF080408A
:100AF000CDE90010AAF1010088A901EBC000D0E9FE
:100B000000B15846A19BA09AFFF7D1FC00206D4987
:100B1000CDE90001AAF1010074A901EBC000D0E900
:100B200000B158469D9B9C9AFFF7C1FC0021654887
:100B3000CDE90010AAF1010060A901EBC001D1E9E3
:100B400000B142464B465846FFF7B1FC88AA02EB7B
:100B5000CA02A099A198C2E9001074AA02EBCA02C5
:100B60009D999C9803C260A800EBCA00C0E9008967
:100B70000A2001F0C2F90AF1010000F0FF0ABAF1FF
:100B80000A0FFFF670AF0A2188A8FFF728FC044679
:100B90000D460A2174A8FFF722FC06460F460A21DB
:100BA00060A8FFF71CFC9F919E9022462B4646A111
:100BB0005DA803F0F3F832463B4645A15AA803F07E
:100BC000EDF843A157A89F9B9E9A03F0E7F80022F7
:100BD0003B4B2046294604F0B3FE02D24FF0010BF6
:100BE00001E04FF0000B00223B4B3046394604F049
:100BF000A7FE01D2012000E000200BEA000B00223A
:100C0000364B9F999E9804F09BFE6AD2012069E0C2
:100C100041542B434744434F4E543D312C224950BD
:100C2000222C22434D4E4554220D0A0041542B43A1
:100C3000474143543D312C310D0A000041542B43B0
:100C4000495053544152543D22544350222C2200C7
:100C500004000020222C000016000020434F4E4EBE
:100C60004543540041542B434950544D4F44453D56
:100C7000310D0A000D0AC5E4D6C347505253C4A330
:100C8000BFE9204F4BA3A10D0A0000002500000082
:100C900044303030310A000073656E64206465763C
:100CA00069636549442025732073756363657373B5
:100CB000000000009C0F002000408F40CC07002067
:100CC0000000244000407F40252E336C6600000069
:100CD000252E316C6600000000409F400088A34034
:100CE000FFE700200BEA000BBBF1000F7DD071483D
:100CF0000078012874D164210CA803F082FA6421E1
:100D00000CA803F07EFA4FF4FA5001F0F6F89DF8C3
:100D1000980205F09FF8834604F0CEFFCDE90A0162
:100D20009DF89C0205F096F8834604F0C5FFCDE9D6
:100D300008019F999E9802AAF0C2CDE90601DDE95B
:100D40000A01CDE900015CA10CA8DDE9082303F04C
:100D500025F81020022300909DF89C2200212020DD
:100D600000F095FB1020022300909DF898220021AE
:100D7000662000F08CFB5AAA02212C2000F05FFCB8
:100D80005DAA04212A2000F05AFC57AA0621282037
:100D900000F055FC0CA952A002F0F4FF5148006885
:100DA00008B9012000E000204E490860012340F608
:100DB000B8320CA90CA8FFF7BAFA012802D00A2011
:100DC000FFF7F9FA642001F098F864210CA803F009
:100DD00018FA1A208DF83000642001F08EF800BF58
:100DE0004148007801280AD100E00BE03FA002F062
:100DF000C9FF00F0DEFA41A002F0C4FF06E00120C6
:100E0000FFF75AFA642001F078F819E600BF0020D5
:100E10000DF5297DBDE8F08F30B585B004460D464F
:100E20001421684603F0EDF91421684603F0E9F94E
:100E300036A1684603F074F92146684603F0B3F919
:100E4000AFF21C21684603F0AEF90A2340F6B8322F
:100E500031A16846FFF76BFA012802D00620FFF7A0
:100E6000AAFA012340F6B83229462846FFF75FFA6E
:100E7000012802D00720FFF79EFA642001F03DF818
:100E80006421684603F0BDF91A208DF8000005239F
:100E900042F21072AFF2C4616846FFF748FA0128C7
:100EA00002D00820FFF787FA642001F026F805B089
:100EB00030BD00001C00002044303030312025328D
:100EC0002E31662025322E31662025342E336620C1
:100ED00025342E31662025342E31660A00000000AC
:100EE00025730000988123421D000020CDCBB3F66E
:100EF0007768696C65D1ADBBB7310000CDCBB3F677
:100F00007768696C65D1ADBBB700000041542B43D5
:100F10004D47533D220000003E000000704700BFD7
:100F2000FEE700BFFEE700BFFEE700BFFEE7704739
:100F300070477047704700000CB50020019000908A
:100F40006C48006840F480306A49086000BF694816
:100F5000006800F4003000900198401C0190009857
:100F600018B90198B0F5A06FF1D16248006800F49B
:100F7000003010B10120009001E0002000900098A6
:100F8000012843D15C48006840F010005A490860CD
:100F90000846006820F0030008600846006840F03A
:100FA000020008605348406852494860084640685B
:100FB00048600846406840F48060486008464068E1
:100FC00020F47C1048600846406840F4E81048600F
:100FD0000846006840F08070086000BF454800681F
:100FE00000F000700028F9D04248406820F003006B
:100FF000404948600846406840F00200486000BF31
:101000003C48406800F00C000828F9D10CBD10B530
:10101000FFF792FF10BD10B53648006840F00100A0
:1010200034490860084640683449084031494860FE
:1010300008460068324908402E49086008460068A2
:1010400020F4802008600846406820F4FE004860D4
:101050004FF41F008860FFF7DAFF4FF00060294966
:10106000086010BD10B5002100200022214B5B68F4
:1010700003F00C0121B1042906D0082928D107E08A
:10108000214B224C236027E01F4B204C236023E0A0
:10109000184B5B6803F47010164B5B6803F48032E6
:1010A000022303EB904022B9194B4343174C2360B2
:1010B0000DE0104B5B6803F4003323B1144B434342
:1010C000124C236003E0104B4343104C236003E0B9
:1010D0000D4B0E4C236000BF00BF064B5B68C3F393
:1010E00003130C4CE15C094B1B68CB40074C23609D
:1010F00010BD000000100240002002400000FFF878
:10110000FFFFF6FE08ED00E000127A002400002048
:1011100000093D002800002008B50121802001F0D1
:1011200073FB4020ADF8000010208DF80300032071
:101130008DF802006946094801F0AAF840210748E5
:1011400001F053F98020ADF800006946034801F032
:101150009FF88021014801F048F908BD001C0140BA
:1011600010B56348406820F4704061494860084603
:10117000406840F44050486000205E4908601420F8
:1011800000F0BBFE01205C49C1F8AC011E2000F05C
:1011900090FE10BD10B500245548406820F4704002
:1011A000534948600846406840F40040486004E005
:1011B000601CC4B2012000F07CFE4E4880380068FC
:1011C00008B1642CF4DB642C01DB012010BD002489
:1011D00004E0601CC4B2012000F06BFE454880387A
:1011E000006808B9642CF4DB642C01DB0120EDE716
:1011F0000020EBE710B5002404E0601CC4B201201D
:1012000000F057FE3B488038006808B1642CF4DBDE
:10121000002404E0601CC4B2012000F04AFE3548FE
:101220008038006808B9642CF4DB282000F041FE07
:1012300030488038006808B1012010BD0020FCE76C
:1012400070B50024002506E06006040EFFF7D2FF0B
:101250000443681CC5B2082DF6DB204670BD7CB582
:1012600005460E46FFF77CFFFFF794FFF8B9002410
:1012700005E0FFF7E5FF0DF80400601CC4B2052C83
:10128000F7DB9DF800009DF8011008449DF802105E
:1012900008449DF8031008449DF80410884208D1C2
:1012A0009DF8000030709DF80200287001E00120D8
:1012B0007CBD0020FCE708B50121080201F0A4FA7A
:1012C0004FF40060ADF8000010208DF803000320FB
:1012D0008DF802006946064800F0DAFF4FF400611D
:1012E000034801F082F8FFF73BFFFFF753FF08BD0B
:1012F00000200140AC0124420000244270B50446A5
:101300000E4626B12021FE4801F06FF803E02021AF
:10131000FB4801F06CF80821F94801F068F8002555
:1013200017E04021F64801F062F804F0800020B197
:101330008021F34801F059F803E08021F04801F0E2
:1013400056F84021EE4801F050F86006040E681C83
:10135000C5B2082DE5DB0821E94801F046F8202157
:10136000E74801F042F870BD70B504460D4605F13E
:10137000B001C8B20021FFF7C1FF102141EA1410EB
:101380000021FFF7BBFF04F00F0141F00100002135
:10139000FFF7B4FF70BD10B500218D20FFF7AEFF41
:1013A00000211420FFF7AAFF0021AF20FFF7A6FFBE
:1013B00010BD10B500218D20FFF7A0FF00211020E7
:1013C000FFF79CFF0021AE20FFF798FF10BD70B51E
:1013D000002419E004F1B001C8B20021FFF78EFF2C
:1013E00000210846FFF78AFF00211020FFF786FF43
:1013F000002505E001210020FFF780FF681CC5B231
:10140000802DF7DB601CC4B2082CE3DB70BD2DE936
:10141000F04107460E46904600250024A8F1200022
:10142000C5B27F2F02DD0027B01CC6B23146384658
:10143000FFF79AFF002408E004EB0511B14A505C65
:101440000121FFF75BFF601CC4B2082CF4DB701CA9
:10145000C1B23846FFF788FF002409E004EB05110C
:101460000831A84A505C0121FFF748FF601CC4B254
:10147000082CF3DBBDE8F08110B50246012000E046
:1014800050430B1EA1F10104E1B2F9D110BD2DE9C9
:10149000FF5F074691461D460E9E4FF0000A00244E
:1014A00033E0281B401EC1B20A20FFF7E5FFB9FB5D
:1014B000F0F00A21B0FBF1F201FB1208BAF1000FC3
:1014C00013D1681EA04210DDB8F1000F0BD1B34656
:1014D00006EBDB71491001FB0471C8B220220199AF
:1014E000FFF795FF0FE04FF0010AB34606EBDB7103
:1014F000491001FB0471C8B208F13001CAB2019968
:10150000FFF785FF00BF601CC4B2AC42C9DBBDE879
:10151000FF9F2DE9FE4F83460C460025AA4626462E
:101520002746002002900021584604F0A7FC06D26E
:10153000012002900021584604F0A0FD8346584641
:1015400004F054FC8046404604F06CFC5946009080
:1015500004F094FD01904FF0030A06E06A490198F7
:1015600004F0C0FC0190AAF1010ABAF1000FF5DC09
:10157000019804F03BFC81464FF0030A0EE0AAF10B
:10158000010A0A2099FBF0F100FB1190303042B2C1
:1015900028466D1C22540A2099FBF0F9B9F1000F7E
:1015A00001DD012000E00020BAF1000F01DD012182
:1015B00000E0002108430028E1D12E2228466D1CBE
:1015C0002254B8F1000F03D1302228466D1C22545A
:1015D0000CE00A2098FBF0F100FB1180303042B2A1
:1015E00028466D1C22540A2098FBF0F8B8F1000F31
:1015F000EFDC0298012803D12D2228466D1C2254CD
:10160000002060556019461E13E097F9000096F916
:1016100000104840387096F9000097F900104840D3
:10162000307097F9000096F9001048403870761E27
:101630007F1CF01B0028E8DC2846BDE8FE8F2DE962
:10164000F04104460F46154600260EE0AA5D3946D5
:101650002046FFF7DCFE04F10800C4B2782C02DD5E
:101660000024B81CC7B2701CC6B2A85D0028EDD11A
:10167000BDE8F0812DE9F04180460E461546002771
:1016800031464046FFF770FE00240AE01F4A02EB95
:101690008511085D0121FFF731FE781CC7B2601C7F
:1016A000C4B2102CF2DB701CC1B24046FFF75CFEE6
:1016B00000240CE06900491C144A02EB4111085D4A
:1016C0000121FFF71BFE781CC7B2601CC4B2102CAE
:1016D000F0DBBDE8F0812DE9F05F06460F4690464D
:1016E0001C46DDF828A04FF0000BE11704EB517108
:1016F000C910A4EBC10181B92046E11708E0000040
:1017000000140140A66300080000204138000020BA
:1017100004EB5171C1F3C70506E02046E11704EB65
:101720005171C910491CCDB23D4615E029463046DD
:10173000FFF71AFEB1460BE059460BF1010B1AF800
:1017400001000121FFF7DAFD09F1010000F0FF09B6
:10175000C145F1DB681CC5B2A542E7DBBDE8F09FDF
:1017600008B501214FF4947001F04EF84FF4FC706D
:10177000ADF8000010208DF8030003208DF8020062
:101780006946564800F084FD4FF4FC71534800F060
:101790002CFE0320ADF800006946514800F078FDAA
:1017A00003214F4800F021FE4FF40040ADF8000047
:1017B00069464C4800F06CFD4FF40041494800F088
:1017C00014FE1021454800F010FE642000F095FB47
:1017D0001021424800F00BFE642000F08EFB102127
:1017E0003E4800F002FE0021AE20FFF787FD0021F9
:1017F0000846FFF783FD00211020FFF77FFD002141
:101800004020FFF77BFD00218120FFF777FD0021BD
:10181000CF20FFF773FD0021A120FFF76FFD00210E
:10182000C820FFF76BFD0021A620FFF767FD002110
:10183000A820FFF763FD00213F20FFF75FFD002197
:10184000D320FFF75BFD00210846FFF757FD00217D
:10185000D520FFF753FD00218020FFF74FFD002129
:10186000D920FFF74BFD0021F120FFF747FD0021B4
:10187000DA20FFF743FD00211220FFF73FFD002192
:10188000DB20FFF73BFD00214020FFF737FD002163
:101890002020FFF733FD00210220FFF72FFD00215C
:1018A0008D20FFF72BFD00211420FFF727FD0021DD
:1018B000A420FFF723FD0021A620FFF71FFD002134
:1018C000AF20FFF71BFD0021AF20FFF717FDFFF74B
:1018D0007EFD00210846FFF747FD08BD00140140CA
:1018E000001001400020014000B587B00121C8046C
:1018F00000F097FF0121084600F086FF012110202B
:1019000000F082FF4FF40060ADF8180001208DF860
:101910001A0004208DF81B0006A93E4800F0B8FC10
:101920004FF48060ADF8180001208DF81A001820DF
:101930008DF81B0006A9374800F0AAFC4FF416509A
:1019400002900020ADF80C00ADF80E00ADF81000CC
:10195000ADF814000C20ADF8120002A92E4800F0DA
:10196000FAFF34208DF8040003208DF805008DF86F
:10197000060001208DF8070001A800F0C0FB01223D
:1019800040F22551244801F07EF8012240F2244122
:10199000214801F078F801211F4801F068F8402142
:1019A0001D4801F04CF907B000BD10B540F22551BB
:1019B000194801F04DF958B11748001D0088C1B20F
:1019C000164802780078401C144B18701448815453
:1019D00040F22441104801F03BF9D0B10E48001DFF
:1019E0000088C4B200240DE00D48015D0A4801F0F2
:1019F000ABF800BF8021084801F014F90028F9D0A5
:101A0000601CC4B2054800788442EDDB0020034925
:101A1000087010BD00100140004C00403A07002043
:101A2000CC07002010B5044644B100219F4802F0C5
:101A300041F901219D4801F0A9FE03E000219B48E6
:101A400001F0A4FE10BD70B5002540F22551984864
:101A500001F0FEF800283DD0954801F079F8C4B2B5
:101A60009448008800F40040E8B992480088B0F536
:101A7000167F12DA0021904802F01CF98D48008888
:101A800018B901218C4801F081FE8A490888411C5F
:101A9000884A118089490C5405E08648008840F442
:101AA00000408449088086480088B0F5167F11DA26
:101AB00000217E4802F0FEF87E48008810B901201F
:101AC000FFF7B0FF7E4801880088401C7C4A1080E8
:101AD0007A48445470BD10B586B0044601210820F0
:101AE00000F092FE0121880400F09BFE704800F097
:101AF000EFFE4FF48060ADF8100003208DF8120067
:101B000018208DF8130004A96E4800F0C1FB4FF4B3
:101B10000060ADF8100004208DF8130004A9694896
:101B200000F0B6FB00940020ADF80400ADF806000C
:101B3000ADF80800ADF80C000C20ADF80A006946BD
:101B40005B4800F008FF0121594800F090FF012296
:101B500040F22551564800F096FF27208DF81400DA
:101B600002208DF8150003208DF8160001208DF855
:101B7000170005A800F0C3FA41F61F4140F2E73014
:101B800000F04DF900204B49088000214A4801F03F
:101B9000FDFD06B010BD10B54FF41671474802F0B8
:101BA0000EFB00204649088010BD0FB438B505A8CB
:101BB00000904548009A049902F0D2F80020009065
:101BC000414802F0D1FA85B200240DE000BF402167
:101BD000374801F027F80028F9D03B48015D344828
:101BE00000F0B2FF601C84B2AC42EFDB38BC5DF8A1
:101BF00014FB7FB505460C460121042000F011FEC0
:101C0000ADF80450ADF800400020ADF80600ADF886
:101C100002006946254801F05DFA01221146234879
:101C200001F0CFFD1E208DF80C0001208DF80D0075
:101C300002208DF80E0001208DF80F0003A800F09F
:101C40005EFA7FBD70B58CB006460C461546012184
:101C5000084600F0CCFD304601F03EF801940295B4
:101C60001020039000200490059080200690002012
:101C70000790089009904FF480500A9000200B9034
:101C800001A9304601F0CAF80CB070BD70B5044629
:101C90000D460021204601F0ECF82946204601F0CF
:101CA000FDF80121204601F0E4F870BD0008004075
:101CB000004800404007002000140040EC0A0020CB
:101CC0003E070020000C0140440D002010B586B0F6
:101CD00004460121042000F097FD0121480400F092
:101CE000A0FD0820ADF8140004208DF81700012095
:101CF0008DF8160005A93B4800F0CAFA0420ADF89B
:101D0000140001208DF8160018208DF8170005A981
:101D1000344800F0BDFA26208DF8000003208DF82D
:101D200001008DF8020001208DF80300684600F0E4
:101D3000E6F901940020ADF80800ADF80A00ADF80E
:101D40000C00ADF810000C20ADF80E0001A92648DB
:101D500000F001FE012240F22551234800F093FEDD
:101D6000012240F22441204800F08DFE01211E484E
:101D700000F07DFE06B010BD70B5002540F2255183
:101D8000194800F065FF58B11748001D0088C1B21E
:101D9000164802780078401C144B1870144881547F
:101DA00040F22441104800F053FFD0B10E48001D0E
:101DB0000088C4B200240DE00D48015D0A4800F01F
:101DC000C3FE00BF8021084800F02CFF0028F9D096
:101DD000601CC4B2054800788442EDDB0020034952
:101DE000087070BD00080140004400404407002016
:101DF0009C0F002010B501211F4801F090FF68B131
:101E00001E48008840F400401C49088001211A48FF
:101E100001F096FF0021184801F0B8FC10BD7FB515
:101E200005460C460121202000F0FBFCADF80450D3
:101E3000ADF800400020ADF80600ADF8020069469C
:101E40000D4801F047F9012211460B4801F0B9FC99
:101E50000121094801F09AFC37208DF80C00002080
:101E60008DF80D0002208DF80E0001208DF80F0076
:101E700003A800F044F97FBD001400404007002093
:101E800010B56FF0040000F084F92E4800682E4968
:101E9000B0FBF1F02D4908700846007800EB4001D6
:101EA000C1EBC0104FF6FF7101EAC000284908805D
:101EB00010BD0146254A12784A434FF0E0235A618B
:101EC00000229A611A46126942F001021A6100BFAB
:101ED0004FF0E022106900F001021AB100F48032E4
:101EE000002AF5D04FF0E022126922F001024FF0F3
:101EF000E0231A6100229A6170470146144A128851
:101F00004A434FF0E0235A6100229A611A4612694F
:101F100042F001021A6100BF4FF0E022106900F0A8
:101F200001021AB100F48032002AF5D04FF0E0220D
:101F3000126922F001024FF0E0231A6100229A6137
:101F4000704700002400002000127A00460700209D
:101F500048070020014600BF704700BF514A128861
:101F600002F04002002AF9D0C2B24E4B1B1D1A806B
:101F7000704710B5044600BF20214A4800F052FEC9
:101F80000028F9D0474800F0E3FD10BD10B586B039
:101F90000446012144F2040000F036FC414800F000
:101FA00097FC4FF40070ADF8140003208DF8160074
:101FB00018208DF8170005A93B4800F069F94FF487
:101FC0008060ADF8140004208DF8170005A936488C
:101FD00000F05EF925208DF8000003208DF8010047
:101FE0008DF8020001208DF80300684600F087F8A4
:101FF00001940020ADF80800ADF80A00ADF80C001F
:10200000ADF810000C20ADF80E0001A9254800F035
:10201000A2FC012240F22551224800F034FD0121AA
:10202000204800F024FD06B010BD10B540F2255147
:102030001C4800F00DFE10B31A4800F089FDC4B230
:102040001A48008800F40040C8B91848008800F415
:10205000804060B10A2C03D000201449088020E0A1
:102060001248008840F400401049088019E00D2C07
:1020700006D10E48008840F480400C49088010E0EA
:102080000A480088C0F30D0009490C54074800882D
:10209000401C0649088008460088C72801DD00204A
:1020A000088010BD003801400008014050070020A2
:1020B000641000200948804709480047FEE7FEE712
:1020C000FEE7FEE7FEE7FEE7FEE7FEE7FEE7FEE7E8
:1020D00004480549054A064B7047000017100008E0
:1020E000310100089011002090170020901300206B
:1020F0009013002031490143314A1160704770B597
:10210000002100230F22C47804B32D4C246804F46A
:10211000E064C4F5E064210AC1F10403CA404478D4
:1021200004FA03F18478144021430901254C067810
:10213000A155047804F01F050124AC4005786D1109
:10214000AD0005F1E025C5F8004109E0047804F090
:102150001F050124AC401C4D0678761145F8264039
:1021600070BD1A4A0A400243154B1B1F1A60704784
:1021700039B1134A121D12680243114B1B1D1A601C
:1021800006E00F4A121D126882430D4B1B1D1A6098
:102190007047042808D14FF0E021096941F004019B
:1021A0004FF0E022116107E04FF0E021096921F0D2
:1021B00004014FF0E0221161704700000000FA05B1
:1021C0000CED00E000E400E080E100E080FFFF1F94
:1021D00010B50446CC48844208D10121042000F007
:1021E0002DFB0021042000F029FB46E0C748844273
:1021F00008D10121082000F021FB0021082000F077
:102200001DFB3AE0C248844208D10121102000F0B1
:1022100015FB0021102000F011FB2EE0BD48844288
:1022200008D10121202000F009FB0021202000F02E
:1022300005FB22E0B848844208D10121402000F08B
:10224000FDFA0021402000F0F9FA16E0B34884427C
:1022500008D10121802000F0F1FA0021802000F057
:10226000EDFA0AE0AE48844207D10121801500F062
:10227000E5FA0021A01500F0E1FA10BD10B501212A
:10228000084600F0DBFA0021012000F0D7FA10BD6B
:102290002DE9F041024600250026002000230024FD
:1022A000002791F803C00CF00F0591F803C00CF063
:1022B000100CBCF1000F03D091F802C04CEA0505E8
:1022C00091F800C0BCF1000F31D0146800202BE061
:1022D0004FF0010C0CFA00F3B1F800C00CEA030651
:1022E0009E4220D183004FF00F0C0CFA03F7BC4341
:1022F00005FA03FC4CEA040491F803C0BCF1280F72
:1023000006D14FF0010C0CFA00FCC2F814C00AE030
:1023100091F803C0BCF1480F05D14FF0010C0CFA45
:1023200000FCC2F810C0401C0828D1D31460B1F8DA
:1023300000C0BCF1FF0F34DD546800202EE000F136
:10234000080C4FF0010808FA0CF3B1F800C00CEAD1
:1023500003069E4221D183004FF00F0C0CFA03F7C5
:10236000BC4305FA03FC4CEA040491F803C0BCF139
:10237000280F05D100F1080C08FA0CF8C2F81480F7
:1023800091F803C0BCF1480F07D100F1080C4FF0E1
:10239000010808FA0CF8C2F81080401C0828CED3B7
:1023A0005460BDE8F0814FF6FF7101800221817019
:1023B0000421C17070470246002093680B400BB1A6
:1023C000012000E0002070470146886880B2704715
:1023D00002460020D3680B400BB1012000E0002032
:1023E00070470146C86880B270470161704741611B
:1023F00070470AB1016100E041617047C1607047F8
:102400004FF480320A43826181618261826982690C
:10241000704702460020434B18684FF680731840FF
:1024200040EA021008433F4B186070473E49C861BC
:102430007047F0B50A46002300240021002500F073
:102440000046B6F1004F02D1364EF16901E0354E3B
:102450007168C0F3034583B200F44016B6F5401F1F
:1024600008D121F070612F4E766826F070662D4FEE
:102470007E6012E000F48016B6F5801F06D10326B8
:1024800006FA05F4A14341F0706106E0460D3601FD
:1024900003FA06F6B14341F0706122B1460D3601F0
:1024A00003FA06F6314300F00046B6F1004F02D1C0
:1024B0001C4EF16101E01B4E7160F0BD30B5002291
:1024C0008B071C0F0F2303FA04F2164B08338C10F2
:1024D00053F824309343134C08348D1044F82530BE
:1024E00023468C1053F824308C07240F00FA04F490
:1024F00023430C4C08348D1044F8253030BD0A4974
:10250000DC3108607047000000080140000C014009
:10251000001001400014014000180140001C01405F
:10252000002001400000014000002042DF48006818
:1025300040F00100DD49086008464068DC49084079
:10254000DA49486008460068DA490840D749086017
:102550000846006820F4802008600846406820F49F
:10256000FE0048604FF41F0088607047CF4909683B
:1025700021F48031CD4A11601146096821F480218F
:102580001160B0F5803F03D0B0F5802F0ED106E08A
:10259000C649096841F48031C44A116007E0C34963
:1025A000096841F4A021C14A116000E000BF00BFEA
:1025B000704710B501460022002300204A11012A6D
:1025C00002D1BA4C236806E0022A02D1B74C236A32
:1025D00001E0B64C636A01F01F02012494401C40E4
:1025E0000CB1012000E0002010BD38B500200090A3
:1025F0000024002500BF3120FFF7DBFF05460098CF
:10260000401C00900098B0F5A06F01D0002DF2D0D2
:102610003120FFF7CEFF08B1012400E0002420465E
:1026200038BD01460020A14A106820F0F80040EAB9
:10263000C10010607047A049086070470246002042
:102640009A4B586820F47C1042EA01031843974BD8
:102650005860704798490866704701460020934AC1
:10266000506820F003000843506070478F4840686E
:1026700000F00C007047014600208C4A506820F0A2
:10268000F00008435060704701460020874A5068B8
:1026900020F4E06008435060704701460020834A00
:1026A000506820F4605040EAC1005060704729B182
:1026B0007E4A527A02437D4B5A7204E07B4A527A38
:1026C00082437A4B5A7270477B49D8310860704711
:1026D00001460020754A506820F44040084350608D
:1026E00070470021714A20321170704A82F8201020
:1026F000012802D004280AD104E001216B4A2032CB
:10270000117005E00521694A2032117000E000BF18
:1027100000BF70476949086070476449096A01430E
:10272000624A11627047654944390860704730B5A4
:1027300000210022002400235C4D6D6805F00C018F
:1027400021B1042905D0082923D105E05C4D05609D
:1027500022E05B4D05601FE0544D6D6805F470127A
:10276000524D6D6805F48034022505EB92421CB988
:10277000544D554305600BE04C4D6D6805F4003534
:102780001DB1504D5543056002E04D4D5543056068
:1027900002E04B4D056000BF00BF444D6D6805F081
:1027A000F0010909484D6B5C0568DD4045603F4D0F
:1027B0006D6805F4E061090A434D6B5C4568DD40D6
:1027C00085603A4D6D6805F46051C90A3E4D6B5CF9
:1027D0004568DD40C560354D6D6805F44041890BA5
:1027E0003A4D6B5CC568B5FBF3F5056130BD29B1A9
:1027F0002E4A526902432D4B5A6104E02B4A52691A
:1028000082432A4B5A61704729B1284A9269024390
:10281000264B9A6104E0254A92698243234B9A61D0
:10282000704729B1214AD2690243204BDA6104E0A2
:102830001E4AD26982431D4BDA61704729B11B4A97
:10284000D2680243194BDA6004E0184AD268824326
:10285000164BDA60704729B1144A12690243134BD0
:102860001A6104E0114A12698243104B1A617047E1
:1028700012494039086070470F49C86470470B49D6
:10288000C87170470948406A40F080700749486243
:10289000704701460020054A92680A400AB10120AB
:1028A00000E0002070470149887270470010024024
:1028B0000000FFF8FFFFF6FE0000424280044242A3
:1028C00000127A0000093D00520700206207002034
:1028D00010B50446FB48844209D101218803FFF763
:1028E000ADFF00214FF48040FFF7A8FF32E0F6482B
:1028F000844209D101214804FFF7ADFF00214FF4C4
:102900000030FFF7A8FF25E0F048844209D10121FB
:102910008804FFF7A0FF00214FF48020FFF79BFF02
:1029200018E0EB48844209D10121C804FFF793FF66
:1029300000214FF40020FFF78EFF0BE0E5488442B2
:1029400008D101210805FFF786FF00214FF4801010
:10295000FFF781FF10BD2DE9F04786B005460E4612
:102960000024A24600BFA1460027B08900B100BFE5
:102970002F462C8A4CF6FF700440F08804432C82CA
:10298000AC894EF6F3100440B08831890843718950
:1029900008430443AC81AC8A4FF6FF400440B08941
:1029A0000443AC8201A8FFF7C2FEC648874202D1A9
:1029B000DDF810A001E0DDF80CA0A88900F40040CB
:1029C00040B10AEBCA0000EB0A1031684900B0FBC5
:1029D000F1F807E00AEBCA0000EB0A103168890041
:1029E000B0FBF1F86420B8FBF0F004012009642189
:1029F00001FB1089A88900F4004040B1322000EBAF
:102A0000C900B0FBF1F000F00700044308E03220F9
:102A100000EB09106421B0FBF1F000F00F0004435B
:102A20002C8106B0BDE8F0874FF4165101600021FB
:102A30008180C18001810C21418100218181704709
:102A400010B502460020108A4FF2FF0318400B8891
:102A50004C8823438C882343CC882343184310821B
:102A600010BD0021018041808180C180704721B16B
:102A7000828942F40052828104E082894DF6FF731C
:102A80001A4082817047F0B50346002400260025D5
:102A9000002040F66A17B94200D100BF1846C1F3C2
:102AA000421401F01F06012707FA06F5012C01D197
:102AB0000C3004E0022C01D1103000E014301AB1C7
:102AC00007682F43076002E00768AF430760F0BD67
:102AD0001AB1838A0B43838202E0838A8B43838209
:102AE0007047028A4FF6F0731A400282028A0A4344
:102AF0000282704782894FF2FF731A408281828975
:102B00000A438281704721B1828942F002028281A8
:102B100004E082894FF6FD731A4082817047028A71
:102B20004FF6DF731A400282028A0A43028270471C
:102B300021B1028A42F48042028204E0028A4BF60A
:102B4000FF731A4002827047C1F308028280704707
:102B500001468888C0F308007047818941F001016F
:102B600081817047028BD2B20283028B42EA01223A
:102B700002837047028B02F47F420283028B0A4376
:102B80000283704721B1828A42F02002828204E0EF
:102B9000828A4FF6DF731A408282704721B1828A9F
:102BA00042F01002828204E0828A4FF6EF731A40EC
:102BB0008282704721B1828A42F00802828204E058
:102BC000828A4FF6F7731A408282704721B1828958
:102BD00042F40042828103E08289C2F30E028281C4
:102BE000704721B1828A42F40062828204E0828AC4
:102BF0004FF2FF731A4082827047828A4FF6FB734E
:102C00001A408282828A0A438282704721B1828A74
:102C100042F00202828204E0828A4FF6FD731A407B
:102C20008282704702460020B1F5007F00D100BFCC
:102C300013880B400BB1012000E00020704701F425
:102C40000072B2F5007F00D100BFCA430280704716
:102C500070B50246002400230025002040F66A16C5
:102C6000B14200D100BFC1F3421501F01F0301269C
:102C700006FA03F3012D02D19689334006E0022DB6
:102C800002D1168A334001E0968A33400C120126A5
:102C900006FA04F41688344013B10CB1012000E0A8
:102CA000002070BD10B50022002340F66A14A14236
:102CB00000D100BF0A1201249440A3B2DC43048077
:102CC00010BD0000003801400044004000480040B2
:102CD000004C00400050004001684FF6FE72114069
:102CE00001600021016041608160C1608D498842BE
:102CF00008D18C490839496841F00F01894A083ADE
:102D000051608AE087491431884208D185490839E1
:102D1000496841F0F001834A083A51607DE08149F9
:102D20002831884208D17F490839496841F47061E7
:102D30007C4A083A516070E07A493C31884208D1B7
:102D400078490839496841F47041764A083A516037
:102D500063E074495031884208D1724908394968A2
:102D600041F470216F4A083A516056E06D49643170
:102D7000884208D16B490839496841F47001694AB1
:102D8000083A516049E067497831884208D165497D
:102D90000839496841F07061624A083A51603CE084
:102DA0006149884206D1011F096841F00F01021FE5
:102DB000116032E05C491431884208D15A49091F38
:102DC000096841F0F001584A121F116025E0564988
:102DD0002831884208D15449091F096841F47061BB
:102DE000514A121F116018E04F493C31884208D106
:102DF0004D49091F096841F470414B4A121F116087
:102E00000BE049495031884207D14749091F0968F9
:102E100041F47021444A121F1160704710B500221E
:102E2000026847F6F0739A430C6A8B6823430C6977
:102E300023434C6923438C692343CC6923434C6A65
:102E400023438C6A23431A430260CB6843600B68B8
:102E500083604B68C36010BD0021016041608160E8
:102E6000C160016141618161C16101624162816250
:102E7000704721B1026842F00102026004E002687A
:102E80004FF6FE731A40026070471AB103680B4395
:102E9000036002E003688B43036070474160704742
:102EA0000146486880B2704701460020002201F0C8
:102EB00080531BB11C4B083B1A6802E0194B083BBE
:102EC0001A6802EA01030BB1012000E000207047FC
:102ED00000F0805119B11449091F086002E011493E
:102EE00008394860704701460020002201F08053F5
:102EF0001BB10D4B083B1A6802E00A4B083B1A68ED
:102F000002EA01030BB1012000E00020704700F04D
:102F1000805119B10449091F086002E001490839CC
:102F200048607047080002400804024010B504469B
:102F3000FE48844208D10121C014FFF77FFC002124
:102F4000E014FFF77BFCC4E0B4F1804F08D101210D
:102F50000846FFF780FC00210120FFF77CFCB8E069
:102F6000F348844208D101210220FFF774FC0021BC
:102F70000220FFF770FCACE0EE48844208D101214A
:102F80000420FFF768FC00210420FFF764FCA0E0A8
:102F9000E948844208D101210820FFF75CFC0021A8
:102FA0000820FFF758FC94E0E448844208D101214E
:102FB0001020FFF750FC00211020FFF74CFC88E0A8
:102FC000DF48844208D101212020FFF744FC002182
:102FD0002020FFF740FC7CE0DA48844208D1012140
:102FE0004014FFF72BFC00216014FFF727FC70E072
:102FF000D548844209D10121C804FFF71FFC0021F4
:103000004FF40020FFF71AFC63E0D048844209D156
:1030100001210805FFF712FC00214FF48010FFF793
:103020000DFC56E0CA48844209D101214805FFF74A
:1030300005FC00214FF40010FFF700FC49E0C548F3
:10304000844208D101214020FFF705FC00214020E7
:10305000FFF701FC3DE0C048844208D101218020F7
:10306000FFF7F9FB00218020FFF7F5FB31E0BB48BB
:10307000844208D101218015FFF7EDFB0021A01546
:10308000FFF7E9FB25E0B648844209D10121080495
:10309000FFF7D4FB00214FF48030FFF7CFFB18E09F
:1030A000B048844209D101214804FFF7C7FB002141
:1030B0004FF40030FFF7C2FB0BE0AB48844208D16D
:1030C00001218804FFF7BAFB00214FF48020FFF7AD
:1030D000B5FB10BD00220288944B98420ED0994B4C
:1030E00098420BD0B0F1804F08D0914B984205D058
:1030F000904B984202D0904B984204D14FF68F7378
:103100001A404B881A438D4B984207D08C4B9842FB
:1031100004D04FF6FF431A40CB881A4302808B88B5
:1031200083850B880385814B98420BD0854B984251
:1031300008D08B4B984205D08A4B984202D08A4BDC
:10314000984201D10B7A038601238382704770B5C0
:10315000002400220023058C4FF6FE7635400584BE
:10316000028C8388048B4FF68F752C40B51E2C4043
:103170000D882C43751E2A400D892A434D882A4309
:103180006A4DA8420BD06F4DA84208D0744DA8429A
:1031900005D0744DA84202D0734DA84213D14FF60A
:1031A000F7752A404D892A434FF6FB752A408D88D2
:1031B0002A434FF6FF652B404FF6FF552B408D8974
:1031C0002B43CD892B4383800483CD88858602845D
:1031D00070BD70B5002400220023058C4FF6EF76F9
:1031E00035400584028C8388048B48F6FF752C409B
:1031F0004FF6FF452C400D884FF6FF7606EA052571
:103200002C434FF6DF752A400D8906EA05152A433F
:103210004D8806EA05152A43444DA84202D0494D7F
:10322000A8421DD14FF67F752A404D894FF6FF7693
:1032300006EA05152A434FF6BF752A408D8806EA2F
:1032400005152A434FF6FF352B404FF2FF752B40F3
:103250008D8906EA85052B43CD8906EA85052B4332
:1032600083800483CD880587028470BD70B50024F7
:1032700000220023058C4FF6FF6635400584028C42
:103280008388848B4FF68F752C404FF6FC752C404D
:103290000D882C434FF6FF552A400D894FF6FF76D7
:1032A00006EA05252A434D8806EA05252A431F4DCF
:1032B000A84202D0234DA8421DD14FF2FF752A40EB
:1032C0004D894FF6FF7606EA05252A434FF6FF356E
:1032D0002A408D8806EA05252A434EF6FF752B40C5
:1032E0004DF6FF752B408D8906EA05152B43CD89D8
:1032F00006EA05152B4383808483CD888587028465
:1033000070BD70B5002200230024058C4EF6FF76B8
:1033100035400584038C8488828B48F6FF752A40EB
:103320004FF6FF452A400D8820E00000002C0140A8
:103330000004004000080040000C00400010004065
:103340000014004000340140004C01400050014096
:103350000054014000180040001C004000200040C4
:103360000040014000440140004801404FF6FF7614
:1033700006EA05252A434DF6FF752B400D8906EA1E
:1033800005352B434D8806EA05352B43FA4DA842F7
:1033900002D0FA4DA84208D14BF6FF752C408D891A
:1033A0004FF6FF7606EA85152C4384808283CD880C
:1033B000A0F84050038470BD828B4FF2FF331A4057
:1033C0008283828B4FF6FF7303EA01231A438283C1
:1033D0007047F0B50C461546002200210026078CE8
:1033E0004EF6FF7C07EA0C070784828B018C4FF6B0
:1033F000FF7707EA043640F6FF473A404FF6FF777B
:1034000007EA05273A434FF6FF7707EA03373A43BF
:10341000D94FB8420ED0D94FB8420BD0B0F1804F3F
:1034200008D0D74FB84205D0D64FB84202D0D64FB9
:10343000B84206D14DF6FF77394046F480573943FC
:1034400005E047F6FF57394044F4805739438283FB
:103450000184F0BD828B4FF6F3731A408283828B16
:103460000A4382837047F0B50C46154600220021BE
:103470000026078C4FF6FF6C07EA0C070784828B47
:10348000018C4FF6FF7707EA04264FF60C773A4097
:103490004FF6FF7707EA03172F433A43B64FB84278
:1034A0000ED0B64FB8420BD0B0F1804F08D0B44F19
:1034B000B84205D0B34FB84202D0B34FB84206D19C
:1034C0004FF6FF57394046F48077394305E04FF215
:1034D000FF57394044F48077394382830184F0BD3B
:1034E000028B4FF2FF331A400283028B4FF6FF73B9
:1034F00003EA01231A4302837047F0B50C461546D0
:10350000002200210026078C4FF6EF7C07EA0C070B
:103510000784028B018C4FF6FF7707EA041640F60A
:10352000FF473A404FF6FF7707EA03373A434FF633
:10353000FF7707EA05273A438F4FB8420ED08F4FE7
:10354000B8420BD0B0F1804F08D08D4FB84205D0B3
:103550008C4FB84202D08C4FB84206D14FF6DF777D
:10356000394046F01007394305E04FF65F773940A0
:1035700044F01007394302830184F0BD028B4FF6FB
:10358000F3731A400283028B0A4302837047F0B53B
:103590000C46154600220021068C4FF6FE773E4071
:1035A0000684028B018C4FF60C7632407E1C06EAB4
:1035B00003162E433243704EB0420ED06F4EB042CF
:1035C0000BD0B0F1804F08D06D4EB04205D06D4E9B
:1035D000B04202D06C4EB04206D14FF6FD7631407B
:1035E00044F00106314305E04FF6F576314044F0F2
:1035F0000106314302830184F0BD70B505460C46D7
:103600005D4885420ED05D4885420BD0B5F1804FB4
:1036100008D05B48854205D05A48854202D05A48B6
:10362000854200D100E000BF208850B92389A288DC
:1036300061882846FFF7ABFFE1882846FFF79EFF29
:1036400025E0208804280AD12389A2886188284699
:10365000FFF753FFE1882846FFF742FF17E0208875
:1036600008280AD12389A28861882846FFF7FBFE33
:10367000E1882846FFF7EEFE09E02389A2886188E9
:103680002846FFF7A6FEE1882846FFF795FE70BDA5
:103690002DE9F04105460C4600260127608808B94F
:1036A000022600E00026A088012801D1022700E0C0
:1036B00001272088A0B92389A28861882846FFF7BE
:1036C00066FFE1882846FFF759FF23893A463146CD
:1036D0002846FFF712FFE1882846FFF701FF13E0B5
:1036E0002389A28861882846FFF707FFE1882846DA
:1036F000FFF7F6FE23893A4631462846FFF747FF93
:10370000E1882846FFF73AFFBDE8F0810A884B8838
:103710001A438B881A43CB881A430B891A434B8967
:103720001A438B891A43A0F8442070474FF6FF7163
:10373000818000210180C180418001727047002199
:10374000018041808180C180018141818181C1816D
:103750007047002101804180012181800021C180CA
:10376000018170470021018041808180C1800181F9
:103770004181818170470000002C014000340140EC
:103780000004004000080040000C004021B1028805
:1037900042F00102028004E002884FF6FE731A40F4
:1037A0000280704731B1B0F8442042F40042A0F8E2
:1037B000442005E0B0F84420C2F30E02A0F84420F3
:1037C00070471AB183890B43838102E083898B435D
:1037D000838170478182704741EA0203A0F8483034
:1037E00070471AB183890B43838102E083898B433D
:1037F0008381704701894FF6F8721140018170474B
:103800000A46002101894FF68F7319401143018147
:10381000704730B504460D4629462046FFF7F0FFB5
:10382000208940F00700208130BD2DE9F041044699
:103830000D4616461F46602D06D13B4601223146F5
:103840002046FFF75AFE05E03B460122314620465E
:10385000FFF79DFE29462046FFF7D2FF208940F062
:1038600007002081BDE8F08130B50C4600210189B8
:10387000C9B24FF6FF7505EA0325154325432943D1
:10388000018130BD2DE9F04105460E4617469846A8
:10389000002443463A4631462846FFF7E5FF2C8987
:1038A0004FF6F870044044F007044FF68F70044060
:1038B00044F070042C81BDE8F081F0B504460D465B
:1038C00016461F463B46324629462046FFF7CCFFA8
:1038D000208940F480402081F0BD018582827047BC
:1038E0000A46002101884FF68F7319401143018069
:1038F0007047F0B50C4615461E46002100220023F5
:103900000189028B038C4FF6F877394021434FF63B
:10391000FC473A4040F201173A434FF6DD773B400F
:103920004FF6FF7707EA06172F433B4301810283D7
:103930000384F0BD0A460021018B4FF68F731940B6
:103940001143018370470A460021018B48F6FF733B
:1039500019404FF6FF7303EA0223194301837047AE
:103960000A460021818B4FF68F73194011438183E2
:1039700070470A460021818B48F6FF7319404FF6C5
:10398000FF7303EA022319438183704721B1028840
:1039900042F08002028004E002884FF67F731A40F2
:1039A0000280704721B1828842F00402828004E0E4
:1039B00082884FF6FB731A408280704721B182885B
:1039C00042F00802828004E082884FF6F7731A40C2
:1039D0008280704721B1828842F00102828004E037
:1039E00082884FF6FE731A40828070470A46002193
:1039F000018B4FF6F77319401143018370470A4654
:103A00000021018B4FF2FF7319404FF6FF7303EA59
:103A100002231943018370470A460021818B4FF628
:103A2000F77319401143818370470A460021818B47
:103A30004FF2FF7319404FF6FF7303EA0223194355
:103A4000818370470A460021018B4FF6FB731940B2
:103A50001143018370470A460021018B4FF6FF3363
:103A600019404FF6FF7303EA02231943018370479D
:103A70000A460021818B4FF6FB7319401143818365
:103A800070470A460021818B4FF6FF3319404FF6ED
:103A9000FF7303EA02231943818370470A4600211A
:103AA000018B4FF67F7319401143018370470A461B
:103AB0000021018BC1F30E014FF6FF7303EA0223CD
:103AC0001943018370470A460021818B4FF67F73AB
:103AD00019401143818370470A460021818BC1F34D
:103AE0000E014FF6FF7303EA0223194381837047E7
:103AF0000A460021018C4FF6FD73194011430184E1
:103B000070470A460021018C4FF6F77319401143A4
:103B1000018470470A460021018C4FF6DF7319407B
:103B20004FF6FF7303EA02131943018470470A46F4
:103B30000021018C4FF67F7319404FF6FF7303EAA3
:103B400002131943018470470A460021018C4FF685
:103B5000FF5319404FF6FF7303EA02231943018410
:103B600070470A460021018C4FF2FF7319404FF64F
:103B7000FF7303EA02231943018470470A460021B8
:103B8000018C4DF6FF7319404FF6FF7303EA0233C1
:103B900019430184704730B5002301248C40A3B23F
:103BA000048C9C430484048C02FA01F5ADB22C43CE
:103BB000048430BD30B5002304248C40A3B2048CAF
:103BC0009C430484048C02FA01F5ADB22C430484B6
:103BD00030BD70B50346002000241846183001257A
:103BE0008D40ACB21D8CA5431D8409B1082909D1B3
:103BF00000EB6100056825F0700505600568154358
:103C000005600EE00D1FC5F34E052844056825F438
:103C1000E045056005684FF6FF7606EA0226354363
:103C2000056070BD21B1028842F00202028004E00A
:103C300002884FF6FD731A400280704721B1028856
:103C400042F00402028004E002884FF6FB731A403F
:103C50000280704721B1828842F08002828004E0B5
:103C600082884FF67F731A408280704702884FF631
:103C7000F7731A40028002880A43028070478288E4
:103C80004FF68F731A40828082880A438280704781
:103C900002894FF6F8731A40028102890A430281B1
:103CA000704702894FF67F731A40028102890A43E6
:103CB0000281704781847047818570478186704793
:103CC0000187704781877047A0F8401070470288CD
:103CD0004FF6FF431A40028002880A430280704771
:103CE0000146888E70470146088F70470146888FCD
:103CF00070470146B1F8400070470146888C704714
:103D00000146088D704702460020138A0B400BB114
:103D1000012000E000207047CA430282704730B59E
:103D20000246002000230024158A05EA0103958934
:103D300005EA010413B10CB1012000E0002030BD00
:103D4000CA430282704770470FB4044910B503AAF2
:103D5000029800F083FD10BC5DF814FB4C070020B6
:103D60001CB50C46064B7B4469460090204600F08B
:103D700046FD04460020694600F054FD20461CBD67
:103D8000BB0A00000FB4044910B503AA029800F062
:103D900065FD10BC5DF814FB4C0700200FB41CB58A
:103DA000084B06AA7B4469460090059800F027FD61
:103DB00004460020694600F035FD20461CBC5DF835
:103DC00014FB00007D0A000070B504468569006898
:103DD000C10601D5302600E02026C00707D070BDFF
:103DE000D4E9012130469047206A401C20626D1EB4
:103DF000F6D570BD70B5044685690078C00707D157
:103E000070BDD4E9012120209047206A401C206227
:103E10006D1EF6D570BD70B50C460546012A05D05D
:103E20002878800600D5EA69002302E0012305E036
:103E30005B1C934202D2E05C0028F9D1A869E61825
:103E4000C01AA861286A184428622846FFF7BCFFF8
:103E500004E0D5E9012114F8010B9047B442F8D3EE
:103E60002846FFF7C7FF70BD2DE9F0410646002444
:103E700010687529314616A510D000F02DFA0028DB
:103E800002DA404213A507E031688A0701D512A57E
:103E900002E0490704D511A5012401E000F025FA4C
:103EA00000210A2206F1240709E0B0FBF2FCB0FB76
:103EB000F2F302FB1C00303078541846491C0028ED
:103EC000F3D123462A463046BDE8F04100F016BA49
:103ED000000000002D0000002B000000200000006A
:103EE000F0B40D460188090502D5214C7C4402E05E
:103EF0001F4C7C440E34002100F1240608E002F03F
:103F00000F071209E75D42EA03721B097754491C47
:103F100052EA0307F3D102780023120704D5702D6B
:103F200006D009B1022311342246F0BC00F0E6B9F4
:103F300001231034F8E770B504460D462146106899
:103F400000F0D3F9024629462046BDE87040002320
:103F5000C6E7D21D22F00703D3E90023C0E70368B8
:103F6000126843F0200303600823C3610023B7E70E
:103F7000A62A00002DE9F05F894604464FF0000AAA
:103F8000DFF874B1FB44C0F820A02046E168884700
:103F9000002874D0252806D0D4E901219047206A52
:103FA000401C2062F1E700265F462046E168884712
:103FB0002028054607DB312D05D2781910F8200C92
:103FC00008B10643F1E7B00701D526F00406C4F8AE
:103FD0001CA00027C4F818A02A2D09D0284601F0FB
:103FE00070FA38B304EB8708303DC8F8185019E070
:103FF00059F8041B204604EB87029161E168884769
:10400000012F054618D1E069002820DA26F02006A5
:104010001DE0D8F8180000EB800005EB40003038B8
:10402000C8F818002046E1688847054601F049FABB
:104030000028EED1012F0AD02E2D08D12046E168AC
:1040400088477F1C0546022F46F02006C4DBA06986
:10405000002803DA404246F00106A061F00701D0D3
:1040600026F010066C2D0BD0682D09D04C2D39D0C0
:104070006A2D35D0742D35D07A2D33D016E038E046
:10408000E1682F4620468847B842054609D16C2F83
:1040900026D04FF48060E1680643204688470546F5
:1040A00004E06C2F1AD04FF4807006430DB3A5F1D5
:1040B0004100192802D8203546F400664A462946B0
:1040C000204626604E46FCF78DF880B101280BD0C3
:1040D000F61D26F0070000F1080956E74020E4E746
:1040E0008020D8E70020D6E706F104094DE72846EE
:1040F00052E7206ABDE8F09F362A000030B5054639
:104100000B462A4613F8014B12F8010B08B1A042E6
:10411000F8D01CB1002802D06D1CF1E7284630BD54
:1041200040EA0103024630B59B0710D14FF001343D
:1041300000E008C208C91D1B9D4315EAC41FF8D042
:1041400013F0FF0102F8011B0DD01B0AF8E711F86C
:10415000013B002B02F8013B05D011F8013B002B7D
:1041600002F8013BF3D130BD10B5431C02E010F85A
:10417000011B71B18107FAD14FF0013202C88C1ACC
:104180008C4314EAC211F9D0C01A0A0603D0C01E2B
:1041900010BDC01A10BD0A0401D0801E10BD090256
:1041A000FCD0401E10BD421E12F8013F002BFBD177
:1041B00011F8013B002B02F8013BF9D170474FF099
:1041C00000020429C0F0128010F0030C00F01B80E4
:1041D000CCF1040CBCF1020F18BF00F8012BA8BFF2
:1041E00020F8022BA1EB0C0100F00DB85FEAC17CB6
:1041F00024BF00F8012B00F8012B48BF00F8012B69
:1042000070474FF0000200B5134694469646203999
:1042100022BFA0E80C50A0E80C50B1F12001BFF47F
:10422000F7AF090728BFA0E80C5048BF0CC05DF8E5
:1042300004EB890028BF40F8042B08BF704748BF33
:1042400020F8022B11F0804F18BF00F8012B7047A7
:104250004FF0013C50F8042B51F8043B9A4221D115
:10426000A2EB0C03934313EACC1317D150F8042BA1
:1042700051F8043B9A4215D1A2EB0C03934313EA85
:10428000CC130BD150F8042B51F8043B9A4209D1BE
:10429000A2EB0C03934313EACC13DBD04FF00000E6
:1042A000704700BFD01A01BAB1FA81F101F01801CC
:1042B00022FA01F0CB40C1F12001DBB2C0B2C01A3A
:1042C0002CFA01F3D11A914311EAC311E6D17047D8
:1042D000704770477047704709684A0501D540B27A
:1042E0007047C905FCD500B2704709684A0501D579
:1042F000C0B27047C905FCD580B270472DE9F047C0
:104300000D4699469246044600F124080168880645
:1043100004D5E06921F01001216000E00120A842ED
:1043200001DD471B00E00027A1697A1902EB0900B3
:10433000081AA0612078C00602D42046FFF744FD89
:10434000002608E0D4E901211AF806009047206A07
:10435000401C761C20624E45F4DB2078C0060AD54E
:104360002046FFF731FD06E0D4E9012130209047D7
:10437000206A401C2062381EA7F10107F4DC07E028
:10438000D4E9012118F805009047206A401C2062FA
:10439000281EA5F10105F3DC2046FFF72BFD207850
:1043A000000602D50220BDE8F0870120FBE7116876
:1043B0000268006A530501D508700AE0D30501D5EB
:1043C000088006E0130603D5C217C1E9000200E029
:1043D00008600120704770472DE9FF4F0C461E46CC
:1043E0004FF0FF378BB0D2E90001DDF860800A9012
:1043F0008A46C1F30A5505B93D46002108464FF0EB
:104400000000BAF1000F00F4400005DA00EB800074
:104410004FF4400101EA50004FEA9059B9F1010F01
:1044200000DDB9460A9850EA4A000ED044F6105012
:10443000A5F2FF3545432F14B8F1000F1ED0754289
:10444000291E1EDDC9F100021CE0B8F1010F4FF07A
:10445000000001D0302103E0F24305E02154401C6C
:10446000B042FBDB30460022002121540B99C1F8F9
:104470000880C1E900200FB0BDE8F08FBD1B6D1CA6
:10448000DEE74A4600DA694206A800F06DFB06AB9B
:1044900093E8070003AB83E8070050460A9900F051
:1044A00034FC8DE80700A0F500501F3800900398F9
:1044B000002D0ADD42F21F014A460844002303A9E9
:1044C0000390684600F09DFE09E0A0F500504A46C2
:1044D0001F38002303A90390684600F0A7FE8DE86B
:1044E00007000004000C03D04FF0FF30410800E04B
:1044F0001046B8F1000F03D00022009215461EE0CE
:10450000751E05D400F094FA303262556D1EF9D54F
:10451000B3460122084302D000227F1C04E0207829
:10452000302801D100227F1E002A099784D01DE087
:10453000112D07DA00F07CFA303262556D1C50EA1A
:104540000102F5D1084302D00098C8B10EE0002165
:10455000681E05E0235C625C63542254401E491CC3
:104560008142F7DBAB46A81B401E0990002004F8EF
:104570000B000B98099AC0F80880C0E9002B7AE775
:1045800011264FF0000857E72DE9F04F8846044602
:10459000D21D22F0070191B0D1E90001CDE90A0155
:1045A00000F07BFF02460B98C00F01D02D2007E0E2
:1045B0002068810701D52B2002E0202101EAC000FC
:1045C000032A099001D0072A05DB0346414620460D
:1045D00000F074FA0BE12078800601D5E06900E074
:1045E0000620B8F1650F814606D0B8F1660F18D0E5
:1045F000B8F1670F70D131E00020B9F1110F0090D0
:1046000001DB112301E009F101030AAA01A90CA8A9
:10461000FFF7E2FEDDE90C70002609F10105834693
:1046200047E001204B4600904FF000470AAA01A93D
:104630000CA8FFF7D1FEDDE90DB00C995D46002610
:1046400010B909F101000D18B9EB050003D4C0F150
:10465000FF3609F10105A5EB09002BE0B9F1010FC7
:1046600001DA4FF001090020B9F1110F009048461E
:1046700001DD112300E003460AAA01A90CA8FFF7F7
:10468000ABFEDDE90C704D4600268346207800071E
:104690000AD4AB4500DA5D4601A8012D04DD4119BD
:1046A00011F8011C302907D04F4502DA17F1040F29
:1046B00004DA012082460FE06D1EEEE7002F02DCD7
:1046C000ED1B3E4403E0781CA84200DD7D1CB81BB6
:1046D00000F1010A4FF000472078000703D4AA45F3
:1046E00001DB4FF0FF3A0021B7F1004F0DF1430815
:1046F0008DF8431024D002202B23002F01DA7F42B3
:104700002D230A21021EA0F1010000DC5FB197FBFE
:10471000F1FC97FBF1F201FB1C7C17460CF1300C0D
:1047200008F801CDEEE7A8F1010003702188090522
:1047300001D5452100E06521A0F1010800F8011C28
:1047400009980FA9A1EB0807FF1D00B1012041192D
:1047500001EBEA70A1693844081A401EA061207874
:10476000C00602D42046FFF72FFB099828B1D4E9F0
:1047700001219047206A401C20622078C00622D583
:104780002046FFF721FB1EE0002E04DBB34502DDCF
:1047900001A8805D00E03020D4E901219047206A23
:1047A000401C2062761CAAF101005FEA000A0AD1CF
:1047B00000F03AF9C0680168405CD4E901219047F3
:1047C000206A401C2062281EA5F10105DCDC07E000
:1047D000D4E9012118F8010B9047206A401C20629F
:1047E000381EA7F10107F3DC2046FFF703FB032087
:1047F00011B041E601694A1C02610878704700B5B2
:104800008FB0CDE901310021059105497944CDE909
:10481000031011466846FFF7ADFB0FB000BD000066
:10482000E5FFFFFF0A6802F8010B0A60704710B548
:10483000436913B1AFF3008001E0FFF7ECFA012008
:1048400010BD127800F124010A7000224A70012282
:10485000EDE711684FF0FF32E9E70000074B70B554
:104860000D467B44FFF7CBFF0446284600F0EEF9E7
:1048700010B14FF0FF3070BD204670BDF5D6FFFF80
:104880002DE9FF5F15468A460446DFF8AC80F84400
:104890000027D8E900103E46CDE9001010E03AF8B4
:1048A00016106A4602A800F0D5F9411C07D02178FD
:1048B000890603D5E269391891420DD80744761C60
:1048C0002078800602D5E069B84205DDAE42E6DB1D
:1048D0003AF816000028E2D1A069C01BA06120466A
:1048E000FFF772FAD8E90010CDE90010002017E0B8
:1048F0003AF818106A4602A800F0ACF9B0F1FF3F90
:1049000081460BD000250DF1080B05E0D4E901210B
:104910001BF8050090476D1C4D45F7D308F10100C9
:10492000B0428046E4DB206A384420622046FFF72C
:1049300061FABDE8FF9F00003E2100002DE9F04133
:104940008046D21D22F007020025D2E90002F52997
:1049500015A614D0011E72F1000106DA0023D0EB77
:10496000030063EB020211A608E0D8F800108B07E1
:1049700001D50FA602E0490701D50EA60125114673
:10498000002408F1240704E000F052F830323A55D0
:10499000641C50EA0102F7D12B46324621464046BC
:1049A000BDE8F041FFF7AABC000000002D000000A8
:1049B0002B0000002000000030B4002100F124048E
:1049C00008E002F00705D208303542EA4372DB08FE
:1049D0006554491C52EA0305F3D10468002310A270
:1049E000250707D5A40600D421B1C46901230DA26F
:1049F000641EC46130BCFFF781BC10B5044621467B
:104A00001068FFF772FC02462046BDE81040002304
:104A1000D2E7D21D22F00701D1E90023CCE7000044
:104A20000000000030000000004870474C110020DA
:104A300030B5B0F10A024FEA900E71F100034EEA70
:104A4000817EB0EB0E0061EB91014FEA101E4EEA41
:104A5000017E10EB0E0041EB11114FEA102E4EEAD1
:104A6000016E10EB0E0041EB11214FEA104E4EEAA1
:104A7000014E10EB0E0041EB1141401841F10001D5
:104A80004FEAD00040EA41704FEAD10110EB8005B7
:104A90004FEA810444EA907444EB01046D1944EB3D
:104AA0000404521BA3414FF0000348BF0A3200D553
:104AB00030BD401C41F1000130BD00002DE9F04146
:104AC0001F46044603260168072A01F4006004DB40
:104AD00008B116A505E016A503E008B115A500E08C
:104AE00015A521F010002060A069C01EA0610FB1C3
:104AF000401EA0612046FFF767F94FB1D4E90121BC
:104B000038469047206A401C2062C01C206206E0A4
:104B1000206AFAE7D4E9012115F8010B9047761EC7
:104B2000F8D22046FFF766F9BDE8F0814E414E000D
:104B30006E616E00494E4600696E660010B54369AD
:104B400013B1AFF3008001E0FFF79AFE012010BD22
:104B5000128800F1240182840022C2840122EDE740
:104B600011684FF0FF32E9E72DE9F047814616461C
:104B70008AB0354878440DC88DE80D003248784435
:104B8000801C03AC0DC884E80D0041F69B3008443E
:104B9000372190FBF1F290FBF1F5A5F1800501FBC7
:104BA00012041B3C02D56442012000E00020DFF823
:104BB00098A080460027FA44AAF1BE0A0EE0E0075A
:104BC0000AD03246684607EB470101230AEB810110
:104BD00000F02CFB8DE8070064107F1C002CEED148
:104BE000194F7F44AE3F19E0E80715D007EB0410DA
:104BF0000DF1180A90E80E008AE80E00C068F04235
:104C000001D1981908903246012306A903A800F0A3
:104C10000DFB03AB83E807006D10641C002DE3D18E
:104C20004FF0010332466946B8F1000F03A802D0E5
:104C300000F0E7FA01E000F0F9FAC9E90001C9F86B
:104C400008200AB0BDE8F087DC1E0000007B00F001
:104C50008000704770B516460C46054600F044F8D3
:104C6000036893F80101012806D0FF2C0FD8185DC6
:104C700068B101202C7070BDD3F80701324621467F
:104C800003F2071303442846BDE8704018474FF06D
:104C9000FF3070BD004870472C1100207546FFF7AB
:104CA000F9FFAE4605006946534620F007008546E9
:104CB00018B020B5FDF70CFABDE820404FF0000613
:104CC0004FF000074FF000084FF0000B21F00701F4
:104CD000AC46ACE8C009ACE8C009ACE8C009ACE837
:104CE000C0098D467047000010B5FFF79DFE001DFE
:104CF00010BD00BF0908000010B50446AFF30080E6
:104D00002046BDE81040FBF7D0BA5FEA400C08BF70
:104D100091F0000F4FEA8C234FEAC12243EA515130
:104D20004FEA1C5018BF00F5F0404FEA300018BFA2
:104D300041F000415FEA6C5C00F02980BCF1FF3F6C
:104D400008BF40F080407047130C06BF12044FF0BC
:104D5000100C4FF0000C130E04BF12020CF1080CE3
:104D6000130F04BF12010CF1040C930F04BF920047
:104D70000CF1020CD30F04BF52000CF1010C1146D0
:104D80004FF00002A0F11F00A0EB0C00704711F0E3
:104D9000004F08BF704731F000413FF4D5AF0B0C16
:104DA00006BF09044FF0100C4FF0000C0B0E04BFAF
:104DB00009020CF1080C0B0F04BF09010CF1040CE3
:104DC0008B0F04BF89000CF1020CCB0F04BF49000C
:104DD0000CF1010CCCF12003A0EB0C0022FA03F340
:104DE00002FA0CF241EA030100F10100704720F0E1
:104DF0007F4C80EA030023F07F47ACEB070303F509
:104E00007C5300F0004003F1FF032DE980494FEA95
:104E1000154B09B44FEA144325EA0B4E24EA034824
:104E20000FF2042606EB132749083E785FEA3202A8
:104E300003FB0667C7F5000707FB06F64FEA543782
:104E40004FEAD64606F1020607FB066CCCF1005C81
:104E50004FEA1C472CEA074C07FB06F40CFB06F54F
:104E600004EB15464FEA961634BF00204FF0004081
:104E70004FEAD13706FB07FC4FEA1C4C0CFB0BF743
:104E8000D21B03FB0CF761EB07010CFB0EF7B0EB39
:104E9000074072EB17420CFB08F734BFA2EB074246
:104EA000B2EB074261EB17414FEA0C444FEA91071E
:104EB00006FB07FC4FEA1C4C0CFB0BF7B0EBC740A2
:104EC00072EB573203FB0CF734BFA2EBC742B2EBD5
:104ED000C74261EB57310CFB0EF7B0EBC70072EB2A
:104EE00057720CFB08F734BFA2EBC702B2EBC70244
:104EF00061EB5771039F4FEA816141EA921104EB24
:104F0000CC044FEAD1374FEA826206FB07FC42EA43
:104F100090124FEA80604FEA1C4C0CFB0BF7D21B3F
:104F200003FB0CF761EB07010CFB0EF7B0EB07403E
:104F300072EB17420CFB08F734BFA2EB0742B2EB4F
:104F4000074261EB17414FEA8C554FEA910704EB9A
:104F50009C2406FB07FC4FEA1C4C0CFB0BF7B0EB48
:104F6000C74072EB573203FB0CF734BFA2EBC742CA
:104F7000B2EBC74261EB57310CFB0EF7B0EBC70049
:104F800072EB57720CFB08F734BFA2EBC702B2EB0F
:104F9000C70261EB577115EB4C254FEA816141EA7D
:104FA00092114FEA82624FEAD13742EA901206FB31
:104FB00007FC44F100044FEA80604FEA1C4C0CFBF4
:104FC0000BF7D21B03FB0CF761EB07010CFB0EF791
:104FD000B0EB074072EB17420CFB08F734BFA2EBB3
:104FE0000742B2EB074261EB174115EB1C154FEA84
:104FF000813141EA92414FEA823242EA90424FEADD
:1050000080304FEA0C7644F1000448EA03434EEA4C
:105010000B484FF0000EB2EB080C71EB030724BFF6
:10502000624639464EEB0E0E4FF0000B001852410F
:1050300049414BEB0B0BB2EB080C71EB03077BF117
:10504000000B24BF624639464EEB0E0E4FF0000BAC
:105050000018524149414BEB0B0BB2EB080C71EBC2
:1050600003077BF1000B24BF624639464EEB0E0E60
:1050700051EA020718BF46F0010616EB0E7655F10D
:10508000000254F1000103D5BDE88901BDE80088A4
:10509000BDE88901BDE80048B619524141EB010164
:1050A000A3F10103704780807F7E7D7C7B7A7978D5
:1050B000777676757473727171706F6E6E6D6C6CDD
:1050C0006B6A6A696868676666656464636362617F
:1050D0006160605F5F5E5E5D5D5C5C5B5B5A5A5900
:1050E000595858575756565555555454535352526C
:1050F0005251515050504F4F4F4E4E4D4D4D4C4CC4
:105100004C4B4B4B4A4A4A4949494848484747470C
:105110004746464645454544444444434343434249
:10512000424242414141002B9C4630D477002BD073
:105130001CB54FEA370703B44FF010004FF01001D1
:10514000BAF1000F06D0BCF1000FDCBF40F0080040
:1051500040F008014FF000000FBCBDE810400BF11B
:10516000010BBBF1010F08BF5FEA170722BF12F165
:10517000010211F101014FF0004143F1000300F081
:10518000004043EA00007047F9D35708D0E746EAE9
:10519000064613F1400F4FEA16461FDD13F1200FAC
:1051A000DFBF16430A46002120335B42BED0C3F165
:1051B000200746EA064602FA07F74FEA164646EA8D
:1051C0000706C3F1200722FA03F201FA07F721FAD2
:1051D00003F14FF0000342EA0702A7E746EA02069E
:1051E00046EA06464FEA164646EA0106BCBF46EACC
:1051F0000646360C4FF000034FF000024FF000015E
:1052000094E72DE9804C9A46934670B491E83800B3
:1052100007C831EA400C48BF34EA430C03D5FFF716
:10522000E6FDFFF780FFF0BCBDE8008C2DE9804C67
:105230009A46934670B491E8380007C810F0804F42
:1052400008BF13F0804F03D100F005F8FFF76BFFA4
:10525000F0BCBDE8008C20F07F4780EA030023F01B
:105260007F4C07EB0C03A3F57C5300F00040A3F147
:10527000FE0392F0000F00F0B38095F0000F00F0F5
:1052800077802DE901494FEA11404FEA144621EA9F
:10529000004800FB06FC24EA064708FB06F607FB6D
:1052A00008F800FB07F718EB06484CEB164C4FEAE2
:1052B000124B18EB07484FEA15464CEB174022EA11
:1052C0000B4E0BFB06FC25EA06470EFB06F607FB1A
:1052D0000EFE0BFB07F71EEB064E4CEB164C4FF089
:1052E00000061EEB074E4CEB174B18EB0B0840F17A
:1052F000000018EB0E0B58EB000840F100008F1A6D
:105300004FF000013CBFC943661B14BFB5EB040C52
:1053100000213CBFC943F61B4FEA17444EEA8E0EEC
:1053200027EA04454FEA1C4704FB07622CEA074CB6
:1053300005FB07F70CFB05F604FB0CFC16EB074618
:1053400042EB174216EB0C4642EB1C421BEB0606E7
:1053500058EB0202414146EA9E0601D5BDE80189AB
:10536000B619524141EB0101A3F10103BDE80189E6
:105370004FEA14454FEA114724EA054621EA074C53
:1053800005FB07F406FB07F70CFB06F105FB0CFC1D
:1053900011EB074144EB17444FEA124711EB0C4164
:1053A00044EB1C4422EA074C05FB07F206FB07F717
:1053B0000CFB06F605FB0CFC16EB074642EB17420E
:1053C00016EB0C4642EB1C456A1854F1000148BF2D
:1053D0007047B619524141EB0101A3F10103704737
:1053E00095F0000F37D04FEA11424FEA144721EAF7
:1053F000024624EA074C02FB07F106FB07F70CFB09
:1054000006F402FB0CFC14EB074441EB17414FEA96
:10541000154714EB0C4441EB1C4125EA074C02FBF9
:1054200007F506FB07F70CFB06F602FB0CFC16EB78
:10543000074645EB174516EB0C4645EB1C42121987
:1054400051F1000148BF7047B619524141EB0101CB
:10545000A3F1010370474FEA14454FEA114724EACC
:10546000054621EA074C05FB07F106FB07F70CFB95
:1054700006F24FF0000605FB0CFC12EB074241EB75
:10548000174112EB0C4251EB1C4148BF7047921878
:1054900041EB0101A3F101037047490050EAC1202B
:1054A00018BF04204A0D18BF40F0010040F2FF72FF
:1054B000B2EB515F08BF40F00200012808BF052091
:1054C000704730380A2801D2012070470020704709
:1054D00010B500290AD00878002807D0054878447C
:1054E000FEF7B6FE002801D0002010BD0248784427
:1054F00010BD0000AE150000A615000010B5002973
:105500000AD00878002807D005487844FEF7A0FEA6
:10551000002801D0002010BD0248784410BD0000D2
:105520009E1500009615000010B591EA030F48BFC4
:1055300083F0004300F1DE82841A71EB030C05D284
:10554000121943EB0C03001B61EB0C01DFF824E1A3
:105550004FEA1154A4EB135C1EEA430F18BF9EEAF6
:10556000445F73D023EA0E03DCF1200E21EA0451DC
:1055700043F4801332D322FA0CFE10EB0E0023FA10
:105580000CFE41EB0E01CCF1200E03FA0EFE10EBE7
:105590000E0051F10001B1F5801FCCF1200E32D286
:1055A00001EB045112FA0EF2BDE8104058BF7047EB
:1055B000401C38BF5FEA420218BF7047002814BF82
:1055C00020F0010041F100014FEA410313F5001FF3
:1055D00038BF7047A1F1C04100F03CBA012A43EB4B
:1055E0000302ACF1200CDCF11F0E32BF4FF0000EB5
:1055F00023FA0CF310EB030041EB0451B4EB115F01
:10560000D0D0A1EB045101F5801149085FEA3000C8
:1056100001EB04510ED350F1000038BF12FA0EFE18
:1056200008D1BDE81040C9E7401C38BF5FEA42021C
:10563000CAD1C3E7BDE810404FEA410313F5001F8C
:1056400038BF7047A1F1C04100F004BA9EEA445F40
:1056500008D011EA5E0FBDE8104004BF01F0004120
:1056600000207047BDE8104070B500F0A5F900BFFC
:1056700064FBBE3E0000E0FF491058BFC1F140414D
:105680005B1058BFC3F140438B42EFF3008070477B
:105690002DE9C04130B4DFF8A0C23CEA111418BFB4
:1056A0003CEA131400F0EC8081EA03051CEA1114B3
:1056B00044EAD57418BF1CEA131500F0C780A4EBA8
:1056C00005044FF0004545EAC12145EAC32341EAFC
:1056D000505143EA525304F17F74994204F5003467
:1056E0004FEAC0204FEAC22208BF904200F09C80DF
:1056F0004FEA13650FF24016765D4FEA134506FB3D
:1057000005F7C7F1807706FB07F74FEAD737A7FB06
:1057100003687642C8F58038A7FB06CE38BFA8F1EB
:10572000010807FB08E64FF0000EA6FB028CE6FB23
:1057300003CEDCF1000CCEF1004E38BFAEF1010E0D
:10574000A6FB0C584FF000074FF00005E6FB0E8754
:10575000A1FB08C6A0FB07CE16EB0E0645F100051F
:10576000E1FB076515F1E04E7EBFA4F580345FEAEA
:1057700046066D4116F1800745F100054FEA1727EF
:105780004FEA066647EA0567A6F1DE46B6F1805F96
:105790004FEA15251FD9384624F0010C05EBC471DA
:1057A000BCF1FE6F01EB0C1102D8F0BCBDE800812A
:1057B00024425CBF01F5801E9EEAC47F02D4F0BC87
:1057C000BDE80081244238D4F0BCA1F1C041BDE85D
:1057D000004100F03FB94FEAD22242EA43524FEA79
:1057E000D323A7FB02864FEAD02040EA415007FBB3
:1057F00003661EEA0E0F4FEAD12105FB026658BF71
:10580000A6EB0056B6EB00564FEA520E4EEAC37EA8
:1058100018EB0E0E56EB530EBDD518EB02085E4189
:105820007F1C55F10005B6E74FF480154FF00007D7
:105830004FF000064FF00008ADE7F0BC4FF000005D
:1058400001F1C04101F00041BDE8008111EA0C1FE7
:105850000CEA131500D00CE013EA0C1F00F02580B1
:105860004FF00000F0BC81EA030101F00041BDE807
:105870000081F0BCBDE8004181EA030100F0EAB814
:10588000F0BCBDE8004170B500F096F8097EFC3E22
:1058900000F007B881EA03014FF0000001F0004179
:1058A000704781EA030100F0D5B8F0BCBDE80041C3
:1058B0004FF0000021497047FFFDFBF9F7F5F4F2C6
:1058C000F0EEEDEBE9E8E6E4E3E1E0DEDDDBDAD89B
:1058D000D7D5D4D3D1D0CFCDCCCBCAC8C7C6C5C4F9
:1058E000C2C1C0BFBEBDBCBBBAB9B8B7B6B5B4B310
:1058F000B2B1B0AFAEADACABAAA9A8A8A7A6A5A4FB
:10590000A3A3A2A1A09F9F9E9D9C9C9B9A999998BE
:105910009797969595949393929191908F8F8E8E61
:105920008D8C8C8B8B8A89898888878786858584EE
:1059300084838382828181800000FF070000F87FDA
:1059400051EA030C17D41CF5801F58BFBCF5801F0B
:1059500000F10680994218BF704708BF9042704717
:1059600007D711F5801F58BF13F5801F19D499422E
:105970007047894270471CF5801F08D5BCF5801F11
:10598000F7D58B4218BF704708BF824270474FF46B
:10599000001C1CEB410F38BF1CEB430F01D28B42A4
:1059A000704770B500F008F8922449004FF000519C
:1059B0004FF08053FFF760BE0EF1020E2EF0030E83
:1059C0005EF8046B364205D4012A43EB030515F556
:1059D000001F12D8012841EB010C1CF5001F0CD848
:1059E0000ED14FEAD17C15F5001F0CEB4C0C0CF1DD
:1059F000020C08BF4CEBD37C04E04FF0080C01E034
:105A00004FEAD37C0CEB4C0526FA05F606F00706A8
:105A1000B6F1040C06D20EEB860CBDE870404CF0DB
:105A2000010C6047DFE80CF0090B02024FF0004167
:105A30004FF00000A1F5002170BD19461046012865
:105A400051EB010418BFD4F5001484BF002001F00D
:105A5000004170BD0808A0F500114FEA3101704700
:105A600053EA010C17D41CF5801F58BFBCF5801FEA
:105A700000F106808B4218BF704708BF8242704712
:105A800007D713F5801F58BF11F5801F19D48B421B
:105A900070479B4270471CF5801F08D5BCF5801FDE
:105AA000F7D5994218BF704708BF904270474FF42E
:105AB000001C1CEB430F38BF1CEB410F01D2994275
:105AC00070470FB40CBC03BCFFF76BBF91EA030F28
:105AD00010B581F000413FF52FAD83F0004300F099
